:100000000C942A000C9447000C9447000C94470071
:100010000C9447000C9447000C9447000C94470044
:100020000C9447000C9447000C9447000C94470034
:100030000C9447000C9447000C9447000C94470024
:100040000C9447000C9447000C9447000C94470014
:100050000C94470011241FBECFE5D4E0DEBFCDBF16
:1000600010E0A0E6B0E0E6E5F1E002C005900D92F8
:10007000A036B107D9F710E0A0E6B0E001C01D92AC
:10008000A036B107E1F70E9476000C94A9000C9409
:10009000000081E080B981B181B9089586B7846A92
:1000A00086BF06B607FEFDCF81B1887F8830E1F7B5
:1000B000089583B984E886BF06B607FEFDCF81B1F7
:1000C000887F8831E1F7089583B984E886BF06B652
:1000D00007FEFDCF81B1887F8832E1F7089586B7AA
:1000E000846986BF06B604FEFDCF08958FEF87BBF7
:1000F0000E9449008FEF99EFA0E081509040A0400E
:10010000E1F700C000000E944E008FEF99EFA0E0E1
:1001100081509040A040E1F700C0000082E00E94C2
:1001200059008FEF99EFA0E081509040A040E1F797
:1001300000C000008FEF0E9464008FEF99EFA0E0F5
:1001400081509040A040E1F700C000000E946F0085
:06015000CFCFF894FFCFB1
:00000001FF
